:100000000C9456290C9487290C9487290C948729E1
:100010000C9487290C9487290C9487290C948729A0
:100020000C9487290C9487290C9487290C94872990
:100030000C9487290C9487290C9487290C94872980
:100040000C9487290C9487290C9487290C94872970
:100050000C9487290C9487290C9487290C94106898
:100060000C9487290C9484680C945A680C94872902
:100070000C9487290C9487290C9487290C94872940
:100080000C9487290C9487290C9487290C94872930
:100090000C9487290C9487290C9487290C94872920
:1000A0000C9487290C9487290C9487290C94872910
:1000B0000C9487290C9487290C9487290C94872900
:1000C0000C9487290C9487290C9487290C948729F0
:1000D0000C9487290C9487290C9487290C948729E0
:1000E0000C94872908000000BE922449123EABAA56
:1000F000AA2ABECDCCCC4C3E00000080BEABAAAA42
:10010000AA3E00000000BF000000803F0000000089
:1001100000084178D3BB4387D1133D190E3CC3BDC2
:100120004282AD2B3E68EC8276BED98FE1A93E4C6F
:1001300080EFFFBE01C4FF7F3F00000000000763A7
:100140004236B79BD8A71A39685618AEBAAB558C49
:100150001D3CB7CC5763BD6DEDFD753EF617723192
:10016000BF000000803F0C9451670C94C7290C9489
:100170001F390C9448400C9499420C94DF290C943C
:10018000D1290C94C9630C9492650C9454670C9417
:10019000852C0C94E9290C94B6290C9469620C9472
:1001A00089650C94B5370C94CD290C94ED290C94E9
:1001B000E9630C94C9610C94BB3D0C94A82C0C947D
:1001C000A9620C94BD660C94C9620C94E9620C940B
:1001D0006E410C946C3B0C94B62C0C94AE290C9490
:1001E000EE2C0C9420660C9486650C94A8290C9433
:1001F00046430C9463340C948C650C944F2C0C94F3
:1002000029640C94BA290C94CB680C94A9630C94BF
:10021000BA660C9409640C943C650C9481610C944E
:10022000BD290C94DB290C94B4660C9423660C94C1
:10023000E8290C946A660C9469630C9489290C94DF
:10024000D9650C9489620C943B2D0C94B7660C9480
:10025000A9610C9449620C9409620C9457670C9440
:10026000387F0C9449430C94B1640C9405650C944C
:100270006C640C94C3660C94D2440C948F650C94FB
:1002800089630C9454400C94E3290C94C3290C9476
:1002900049640C94C0660C9449630C9429620C94D4
:1002A000942C0C948D3E0C9445430C94E9610C9471
:1002B00029630C9483650C940A670C9438400C9461
:1002C000EC3E0C946D660C9409630C94D5290C9447
:1002D0003B350C94B22900407A10F35A00A0724EBC
:1002E00018090010A5D4E80000E87648170000E4DB
:1002F0000B54020000CA9A3B000000E1F505000023
:1003000080969800000040420F000000A086010087
:100310000000102700000000E80300000000640057
:10032000000000000A0000000000010000000000C2
:100330002C76D888DC674F0823DFC1DFAE59E1B1E6
:10034000B796E5E3E453C63AE651997696E8E6C2F5
:100350008426EB898C9B62ED407C6FFCEFBC9C9FFC
:1003600040F2BAA56FA5F490055A2AF75C936B6C1E
:10037000F9676DC11BFCE0E40D47FEF520E6B50012
:10038000D0ED902E0300943577050080841E080080
:1003900000204E0A000000C80C333333330F986E30
:1003A00012831141EF8D2114893BE65516CFFEE6ED
:1003B000DB18D1844B381BF77C1D901DA4BBE424B3
:1003C000203284725E228100C9F124ECA1E53D2730
:1003D00078050A000F00140019001E0023002800F1
:1003E0002D00320037003C00410046004B00500019
:1003F00055005A005F0000001400FFFFFFFFFFFFE1
:10040000FFFFFFFFFFFFFFFFFFFFFFFFFFFFFFFFFC
:10041000FFFFFFFFFFFFFFFFFFFFFFFFFFFF0000EA
:100420001900FFFFFFFFFFFFFFFFFFFFFFFFFFFFC1
:10043000FFFFFFFFFFFFFFFFFFFFFFFFFFFFFFFFCC
:10044000FFFFFFFFFFFF00001E00FFFFFFFFFFFF9A
:10045000FFFFFFFF38049C0414058C05040690067A
:100460003007E407B608BA09180BFFFFFFFF0000CA
:100470002300FFFFFFFFFFFFFFFFFFFFD403380450
:100480009C0414058205FA0590063A07F807E80867
:10049000320AFFFFFFFF00002800FFFFFFFFFFFF02
:1004A000FFFFFFFFCA0324048804F6046405E60581
:1004B0007C060807D007C0080A0AFFFFFFFF0000FC
:1004C0002D00FFFFFFFFFFFFFFFFFFFFC0031A0428
:1004D0007E04E2045005DC057206F406B207B60895
:1004E000F609FFFFFFFF00003200FFFFFFFFFFFFE5
:1004F000FFFFFFFFB60310047404E2045005D205A9
:100500006806E006A807A208EC09FFFFFFFF00004D
:100510003700FFFFFFFFFFFFFFFFFFFFAC031004EB
:100520006A04D8044605C8055406CC069407980802
:10053000D809FFFFFFFF00003C00FFFFFFFFFFFFA8
:10054000FFFFFFFFAC0310046A04CE044605BE059E
:100550004A06AE0676077A08C409FFFFFFFF0000CF
:100560004100FFFFFFFFFFFFFFFFFFFFA203FC03B0
:100570005604BA043C05B40540069A0662076608AC
:100580009C09FFFFFFFF00004600FFFFFFFFFFFF8A
:10059000FFFFFFFF7003D4032E048804F6046E05EA
:1005A000FA059006440720085609FFFFFFFF0000E8
:1005B0004B00FFFFFFFFFFFFFFFFFFFF5203AC03F6
:1005C00006047404C4043C05C80554062607DA076B
:1005D000FC08FFFFFFFF00005000FFFFFFFFFFFFD1
:1005E000FFFFFFFF5203AC0306046A04C404320594
:1005F000BE054006FE06BC07E808FFFFFFFF00003F
:100600005500FFFFFFFFFFFFFFFFFFFFFFFFFFFFA3
:10061000FFFFFFFFFFFFFFFFFFFFFFFFFFFFFFFFEA
:10062000FFFFFFFFFFFF00005A00FFFFFFFFFFFF7C
:10063000FFFFFFFFFFFFFFFFFFFFFFFFFFFFFFFFCA
:10064000FFFFFFFFFFFFFFFFFFFFFFFFFFFF0000B8
:100650005F00FFFFFFFFFFFFFFFFFFFFFFFFFFFF49
:10066000FFFFFFFFFFFFFFFFFFFFFFFFFFFFFFFF9A
:10067000FFFFFFFFFFFF00006400FFFFFFFFFFFF22
:10068000FFFFFFFFFFFFFFFFFFFFFFFFFFFFFFFF7A
:10069000FFFFFFFFFFFFFFFFFFFFFFFFFFFF000068
:1006A00078050A000F00140019001E00230028001E
:1006B0002D00320037003C00410046004B00500046
:1006C00055005A005F0000001400FFFFFFFFFFFF0E
:1006D000FFFFFFFFFFFFFFFFFFFFFFFFFFFFFFFF2A
:1006E000FFFFFFFFFFFFFFFFFFFFFFFFFFFF000018
:1006F0001900FFFFFFFFFFFFFFFFFFFFFFFFFFFFEF
:10070000FFFFFFFFFFFFFFFFFFFFFFFFFFFFFFFFF9
:10071000FFFFFFFFFFFF00001E00FFFFFFFFFFFFC7
:10072000FFFFFFFF6A04B004F6043C059605DC05F4
:100730002C069006FE066C07F807FFFFFFFF00007F
:100740002300FFFFFFFFFFFFFFFFFFFFFC0342044B
:100750008804CE041E056405B40504066806D606A2
:100760005807FFFFFFFF00002800FFFFFFFFFFFF0C
:10077000FFFFFFFFE8032E047404BA040A055005C6
:10078000A005FA055E06CC063A07FFFFFFFF000052
:100790002D00FFFFFFFFFFFFFFFFFFFFDE0324042D
:1007A0006A04B004000546059605E6054006B8064D
:1007B0003007FFFFFFFF00003200FFFFFFFFFFFFDA
:1007C000FFFFFFFFDE0324046A04A60400054605BC
:1007D0009605E6053606A4063007FFFFFFFF00007A
:1007E0003700FFFFFFFFFFFFFFFFFFFFD4031A04E7
:1007F00060049C04EC043C058C05DC052C06A40676
:100800002607FFFFFFFF00003C00FFFFFFFFFFFF89
:10081000FFFFFFFFCA031A0460048804EC043C05D0
:100820008205D2052C0690062607FFFFFFFF000079
:100830004100FFFFFFFFFFFFFFFFFFFFC0031004AA
:1008400056047E04D80432057805BE0522068606C5
:100850001207FFFFFFFF00004600FFFFFFFFFFFF43
:10086000FFFFFFFF9803E8032E046A04B0040005AD
:100870005005BE0504067206FE06FFFFFFFF0000DE
:100880004B00FFFFFFFFFFFFFFFFFFFF7A03C003E7
:10089000FC034C049204D80432057805E60554069E
:1008A000E006FFFFFFFF00005000FFFFFFFFFFFF1C
:1008B000FFFFFFFF7A03B603060442048804D8044E
:1008C00032056E05D2054A06CC06FFFFFFFF000089
:1008D0005500FFFFFFFFFFFFFFFFFFFFFFFFFFFFD1
:1008E000FFFFFFFFFFFFFFFFFFFFFFFFFFFFFFFF18
:1008F000FFFFFFFFFFFF00005A00FFFFFFFFFFFFAA
:10090000FFFFFFFFFFFFFFFFFFFFFFFFFFFFFFFFF7
:10091000FFFFFFFFFFFFFFFFFFFFFFFFFFFF0000E5
:100920005F00FFFFFFFFFFFFFFFFFFFFFFFFFFFF76
:10093000FFFFFFFFFFFFFFFFFFFFFFFFFFFFFFFFC7
:10094000FFFFFFFFFFFF00006400FFFFFFFFFFFF4F
:10095000FFFFFFFFFFFFFFFFFFFFFFFFFFFFFFFFA7
:10096000FFFFFFFFFFFFFFFFFFFFFFFFFFFF000095
:1009700078050A000F00140019001E00230028004B
:100980002D00320037003C00410046004B00500073
:1009900055005A005F0000001400FFFFFFFFFFFF3B
:1009A000FFFFFFFFFFFFFFFFFFFFFFFFFFFFFFFF57
:1009B000FFFFFFFFFFFFFFFFFFFFFFFFFFFF000045
:1009C0001900FFFFFFFFFFFFFFFFFFFFFFFFFFFF1C
:1009D000FFFFFFFFFFFFFFFFFFFFFFFFFFFFFFFF27
:1009E000FFFFFFFFFFFF00001E00FFFFFFFFFFFFF5
:1009F000FFFFFFFFFFFFFFFFFFFFFFFFFFFFFFFF07
:100A0000FFFFFFFFFFFFFFFFFFFFFFFFFFFF0000F4
:100A10002300FFFFFFFFFFFF8403D40310045604ED
:100A20009204CE040A0546058C05C8050E065E062E
:100A3000B8062607FFFF00002800FFFFFFFFFFFFAB
:100A40007A03C003060442047E04BA04F6043205A5
:100A50007805B405FA054A06A4061207FFFF000050
:100A60002D00FFFFFFFFFFFF7003B603F203380402
:100A70007404B004EC0428056405A005E6053606F8
:100A80009006FE06FFFF00003200FFFFFFFFFFFFA2
:100A90006603AC03E803240460049C04D804140532
:100AA00050058C05D20522067C06E006FFFF0000FB
:100AB0003700FFFFFFFFFFFF5C039803DE031A040C
:100AC00056049204C40400053C058205C8050E06C0
:100AD0006806CC06FFFF00003C00FFFFFFFFFFFFA2
:100AE00048038E03D403100442047E04BA04F604BF
:100AF00032056E05B405FA055406B806FFFF00007E
:100B00004100FFFFFFFFFFFF3E038403C003FC0320
:100B100038047404B004E2041E055A05A005F0056B
:100B20004006A406FFFF00004600FFFFFFFFFFFF97
:100B300034037A03B603F2032E046A049C04D80437
:100B4000140550059605DC052C069A06FFFF0000EB
:100B50004B00FFFFFFFFFFFF34037003AC03E8030C
:100B6000240456049204CE0400053C058205C80501
:100B700022068606FFFF00005000FFFFFFFFFFFF79
:100B80002A036603A203DE031A044C048804BA0491
:100B9000F60432057805BE050E067206FFFF00005A
:100BA0005500FFFFFFFFFFFF20035C039803D40302
:100BB000060442047404B004EC0428056405AA0584
:100BC000FA056806FFFF00005A00FFFFFFFFFFFF66
:100BD000160352038E03CA03FC0338046A04A604F6
:100BE000D80414055A05A005F0055406FFFF0000BF
:100BF0005F00FFFFFFFFFFFF0C0348038403C003F8
:100C0000F2032E0460049C04CE040A0550059605E8
:100C1000E6054A06FFFF00006400FFFFFFFFFFFF3D
:100C2000020348037A03B603E8032404560492043B
:100C3000C40400053C058205D2053606FFFF00000E
:100C400078050A000F00140019001E002300280078
:100C50002D00320037003C00410046004B005000A0
:100C600055005A005F0000001400FFFFFFFFFFFF68
:100C7000FFFFFFFFFFFFFFFFFFFFFFFFFFFFFFFF84
:100C8000FFFFFFFFFFFFFFFFFFFFFFFFFFFF000072
:100C90001900FFFFFFFFFFFFFFFFFFFFFFFFFFFF49
:100CA000FFFFFFFFFFFFFFFFFFFFFFFFFFFFFFFF54
:100CB000FFFFFFFFFFFF00001E00FFFFFFFFFFFF22
:100CC000FFFFFFFFFFFFFFFFFFFFFFFFFFFFFFFF34
:100CD000FFFFFFFFFFFFFFFFFFFFFFFFFFFF000022
:100CE0002300FFFFFFFFFFFFB60310046004A6040C
:100CF000F6043C058205D20522067206C2062607C6
:100D000094071608FFFF00002800FFFFFFFFFFFF0A
:100D1000AC03FC034C049204D80428056E05B4050A
:100D200004065406A40608077607F807FFFF00002C
:100D30002D00FFFFFFFFFFFF9803E80338047E0448
:100D4000C4040A055A05A005E60536069006EA061B
:100D50005807DA07FFFF00003200FFFFFFFFFFFF29
:100D60008403D40324046A04B004F6043C058C050F
:100D7000D20522067206CC063A07BC07FFFF000028
:100D80003700FFFFFFFFFFFF7A03CA03100456047A
:100D90009C04E20428056E05BE0504065E06B8063E
:100DA0001C079E07FFFF00003C00FFFFFFFFFFFF47
:100DB0006603B60306044C049204CE0414055A05D7
:100DC000A005F00540069A06FE068007FFFF00001A
:100DD0004100FFFFFFFFFFFF5C03AC03F203380499
:100DE0007E04C404000546058C05DC052C06860639
:100DF000EA066C07FFFF00004600FFFFFFFFFFFF52
:100E000052039803E8032E046A04B004F604320582
:100E10007805C80518067206D6064E07FFFF0000C3
:100E20004B00FFFFFFFFFFFF48038E03D4031A04AC
:100E300060049C04E20428056E05B405040654060B
:100E4000B8063A07FFFF00005000FFFFFFFFFFFF5B
:100E50003E038403CA0310044C049204CE04140518
:100E60005A05A005F0054006A4062607FFFF00006E
:100E70005500FFFFFFFFFFFF2A037A03C003FC03B7
:100E800042047E04C404000546058C05DC052C06DE
:100E900090061207FFFF00005A00FFFFFFFFFFFF51
:100EA00020037003AC03F2032E047404B004F604B0
:100EB00032058205C80522067C06F406FFFF000005
:100EC0005F00FFFFFFFFFFFF16036603A203E803B7
:100ED00024046004A604E20428056E05B4050E0689
:100EE0006806E006FFFF00006400FFFFFFFFFFFF52
:100EF0000C035C039803DE031A0456049204D8041E
:100F000014055A05AA05FA055E06D606FFFF00007D
:100F100078050A000F00140019001E0023002800A5
:100F20002D00320037003C00410046004B005000CD
:100F300055005A005F0000001400FFFFFFFFFFFF95
:100F4000FFFFFFFFFFFFFFFFFFFFFFFFFFFFFFFFB1
:100F5000FFFFFFFFFFFFFFFFFFFFFFFFFFFF00009F
:100F60001900FFFFFFFFFFFFFFFFFFFFFFFFFFFF76
:100F7000FFFFFFFFFFFFFFFFFFFFFFFFFFFFFFFF81
:100F8000FFFFFFFFFFFF00001E00FFFFFFFFFFFF4F
:100F9000FFFFFFFFFFFFFFFFFFFFFFFFFFFFFFFF61
:100FA000FFFFFFFFFFFFFFFFFFFFFFFFFFFF00004F
:100FB0002300FFFFFFFFFFFF3E037A03C003FC0394
:100FC00042047E04C40414056405BE052C06AE0666
:100FD00058075208FFFF00002800FFFFFFFFFFFF38
:100FE00034037003B603F2032E047404BA0400053C
:100FF0005A05B4052206A4064E073E08FFFF00006E
:101000002D00FFFFFFFFFFFF2A037003AC03E8037F
:1010100024046A04B004F6044605A0050E069006F2
:101020003A072A08FFFF00003200FFFFFFFFFFFF23
:1010300020036603A203DE031A046004A604EC0482
:101040003C05960504067C0626071608FFFF0000EF
:101050003700FFFFFFFFFFFF16035C039803D40375
:10106000100456049204E20432058C05F005720661
:1010700012070208FFFF00003C00FFFFFFFFFFFF19
:101080000C0352038E03CA03060442048804CE04F0
:101090001E057805E6055E060807F807FFFF000055
:1010A0004100FFFFFFFFFFFF0C0348038403C00361
:1010B000FC0338047E04C40414056E05D2055406EE
:1010C000F406E407FFFF00004600FFFFFFFFFFFFFD
:1010D00002033E037A03B603F2032E047404BA0437
:1010E00000055A05BE054006E006D007FFFF0000D8
:1010F0004B00FFFFFFFFFFFFF80234037003AC0358
:10110000E80324046004A604F6045005B4052C0684
:10111000CC06BC07FFFF00005000FFFFFFFFFFFFF2
:10112000EE022A036603A203DE031A0456049C049B
:10113000EC043C05A0052206C206A807FFFF00003C
:101140005500FFFFFFFFFFFFE40220035C0398034D
:10115000D40310044C049204D804320596050E06FC
:10116000AE069407FFFF00005A00FFFFFFFFFFFFDE
:10117000DA02160352038E03C003FC0342047E040A
:10118000CE041E058205FA059A068007FFFF0000BF
:101190005F00FFFFFFFFFFFFD0020C034803840343
:1011A000B603F2032E047404C40414057805F00594
:1011B00086066C07FFFF00006400FFFFFFFFFFFFD4
:1011C000D00202033E037003AC03E80324046A0464
:1011D000B00400056405DC0572065807FFFF000037
:1011E000E8030A000F00140019001E002300280065
:1011F0002D00320037003C00410046004B005000FB
:1012000055005A005F0000001400FFFFFFFFFFFFC2
:10121000FFFFFFFFFFFFFFFFFFFFFFFFFFFFFFFFDE
:10122000FFFFFFFFFFFFFFFFFFFFFFFFFFFF0000CC
:101230001900FFFFFFFFFFFFFFFFFFFFFFFFFFFFA3
:10124000FFFFFFFFFFFFFFFFFFFFFFFFFFFFFFFFAE
:10125000FFFFFFFFFFFF00001E00FFFFFFFFFFFF7C
:10126000FFFFFFFF44026C029E02C60202033E0320
:101270008403DE034C04D804A005FFFFFFFF000039
:101280002300FFFFFFFFFFFFFFFFFFFF0802300209
:1012900058028A02BC02EE0234037A03DE036004C1
:1012A0001E05FFFFFFFF00002800FFFFFFFFFFFFFD
:1012B000FFFFFFFFFE0126024E026C029E02DA02D1
:1012C00016036603CA034204F604FFFFFFFF000093
:1012D0002D00FFFFFFFFFFFFFFFFFFFFF4011202E2
:1012E00044026C029E02D00216035C03C003380461
:1012F000EC04FFFFFFFF00003200FFFFFFFFFFFFD6
:10130000FFFFFFFFF4011C023A026C029402C602C6
:101310000C034803AC032E04D804FFFFFFFF0000BA
:101320003700FFFFFFFFFFFFFFFFFFFFEA01120291
:101330003A0262028A02C60202034803AC031A049C
:10134000CE04FFFFFFFF00003C00FFFFFFFFFFFF99
:10135000FFFFFFFFEA011202300262028A02BC02B2
:10136000F8023E03A2032404C404FFFFFFFF0000B1
:101370004100FFFFFFFFFFFFFFFFFFFFD601FE0160
:1013800026024E028002B202EE0234038E030604ED
:10139000B004FFFFFFFF00004600FFFFFFFFFFFF5D
:1013A000FFFFFFFFC201E0010802300258028A027B
:1013B000BC0202035C03D4036A04FFFFFFFF0000CA
:1013C0004B00FFFFFFFFFFFFFFFFFFFFAE01CC0160
:1013D000F40108023A0262029E02E4023403A2030C
:1013E0003804FFFFFFFF00005000FFFFFFFFFFFF7B
:1013F000FFFFFFFFAE01CC01EA01080230026202EA
:101400009E02E402340398033804FFFFFFFF00004C
:101410005500FFFFFFFFFFFFFFFFFFFFFFFFFFFF85
:10142000FFFFFFFFFFFFFFFFFFFFFFFFFFFFFFFFCC
:10143000FFFFFFFFFFFF00005A00FFFFFFFFFFFF5E
:10144000FFFFFFFFFFFFFFFFFFFFFFFFFFFFFFFFAC
:10145000FFFFFFFFFFFFFFFFFFFFFFFFFFFF00009A
:101460005F00FFFFFFFFFFFFFFFFFFFFFFFFFFFF2B
:10147000FFFFFFFFFFFFFFFFFFFFFFFFFFFFFFFF7C
:10148000FFFFFFFFFFFF00006400FFFFFFFFFFFF04
:10149000FFFFFFFFFFFFFFFFFFFFFFFFFFFFFFFF5C
:1014A000FFFFFFFFFFFFFFFFFFFFFFFFFFFF00004A
:1014B000E8030A000F00140019001E002300280092
:1014C0002D00320037003C00410046004B00500028
:1014D00055005A005F00000014007201C201FE01B5
:1014E00030026C029E02C602F8022A035C038403E7
:1014F000B603F20324046A04B0040A05960500004A
:1015000019006801AE01F401260258028A02BC02E9
:10151000E40216033E037003A203D40310044C0438
:101520009204EC04780500001E005E01A401E001B5
:101530001C024E028002A802DA02020334035C039A
:101540008E03C003FC0338047E04D8045A0500004F
:1015500023005E019A01D60112023A026C029E0239
:10156000C602EE02200348037A03AC03DE031A042A
:101570006004BA043C050000280054019A01CC0123
:10158000FE01300262028A02BC02E4020C033E0346
:1015900066039803CA0306044C04A6041E05000053
:1015A0002D004A019001C201F40126025802800276
:1015B000A802D00202032A035C038403C003F203DF
:1015C000380492040A050000320040018601C2017D
:1015D000EA011C02440276029E02C602EE022003C9
:1015E00048037A03AC03E80324047E04F6040000F5
:1015F000370040017C01B801EA0112023A026C0294
:101600009402BC02E4020C033E0366039803D40375
:1016100010046A04E20400003C0036017C01AE01C3
:10162000E0010802300262028A02B202DA02020318
:101630002A035C038E03C00306045604CE04000094
:10164000410036017201A401D601FE0126025802B2
:1016500076029E02C602F802200348037A03B6030C
:10166000F2034204BA04000046002C016801A40100
:10167000CC01F40126024E026C029402BC02E40288
:1016800016033E037003A203DE032E04A60400002B
:101690004B002C0168019A01C201F4011C024402B2
:1016A0006C028A02B202DA02020334036603980370
:1016B000D403240492040000500022015E01900132
:1016C000C201EA0112023A0262028002A802D002BA
:1016D000F8022A0352038403CA0310047E040000A4
:1016E000550022015E019001B801E00108023002BC
:1016F000580276029E02C602EE02160348037A03DF
:10170000B6030604740400005A001801540186014F
:10171000AE01E001FE0126024E0276029402BC02F6
:10172000E4020C033E037003AC03F2036004000008
:101730005F00180154018601AE01D601FE011C02B2
:1017400044026C028A02B202DA0202033403660324
:10175000A203E80356040000640018014A017C015A
:10176000A401CC01F4011C023A0262028A02A8021E
:10177000D002F8022A035C039803DE034C04000045
:1017800084030A000F00140019001E002300280023
:101790002D00320037003C00410046004B00500055
:1017A00055005A005F0000001400FFFFFFFFFFFF1D
:1017B000FFFFFFFFFFFFFFFFFFFFFFFFFFFFFFFF39
:1017C000FFFFFFFFFFFFFFFFFFFFFFFFFFFF000027
:1017D0001900FFFFFFFFFFFFFFFFFFFFFFFFFFFFFE
:1017E000FFFFFFFFFFFFFFFFFFFFFFFFFFFFFFFF09
:1017F000FFFFFFFFFFFF00001E00FFFFFFFFFFFFD7
:10180000FFFFFFFFC201EA010802300258028A020C
:10181000D0020C037003DE038804FFFFFFFF00000B
:101820002300FFFFFFFFFFFFFFFFFFFF9001AE015F
:10183000D601F4011C024E028A02C60216037A0384
:101840001004FFFFFFFF00002800FFFFFFFFFFFF66
:10185000FFFFFFFF8601A401CC01EA01120244024E
:101860006C02A80202036603F203FFFFFFFF000001
:101870002D00FFFFFFFFFFFFFFFFFFFF86019A0123
:10188000C201E001FE01260262029E02EE0248034E
:10189000E803FFFFFFFF00003200FFFFFFFFFFFF35
:1018A000FFFFFFFF8601A401C201E00108023A0226
:1018B0006C02A802F8025C03E803FFFFFFFF0000D0
:1018C0003700FFFFFFFFFFFFFFFFFFFF7C019A01D3
:1018D000B801D601FE01260258029402DA023E0344
:1018E000CA03FFFFFFFF00003C00FFFFFFFFFFFFF9
:1018F000FFFFFFFF7C019A01B801D601FE0126021D
:1019000058029402E4024803DE03FFFFFFFF0000D9
:101910004100FFFFFFFFFFFFFFFFFFFF7201860196
:10192000A401C201EA0112024E028A02D00234036B
:10193000C003FFFFFFFF00004600FFFFFFFFFFFFA8
:10194000FFFFFFFF540172019001AE01D601FE01BD
:10195000260262029E0202038403FFFFFFFF0000D3
:101960004B00FFFFFFFFFFFFFFFFFFFF40015E0196
:101970007C019A01B801E00108023A028002DA0211
:101980005203FFFFFFFF00005000FFFFFFFFFFFFBC
:10199000FFFFFFFF4A015E017C019A01B801E001EF
:1019A00008023A028002D0025203FFFFFFFF00004C
:1019B0005500FFFFFFFFFFFFFFFFFFFFFFFFFFFFE0
:1019C000FFFFFFFFFFFFFFFFFFFFFFFFFFFFFFFF27
:1019D000FFFFFFFFFFFF00005A00FFFFFFFFFFFFB9
:1019E000FFFFFFFFFFFFFFFFFFFFFFFFFFFFFFFF07
:1019F000FFFFFFFFFFFFFFFFFFFFFFFFFFFF0000F5
:101A00005F00FFFFFFFFFFFFFFFFFFFFFFFFFFFF85
:101A1000FFFFFFFFFFFFFFFFFFFFFFFFFFFFFFFFD6
:101A2000FFFFFFFFFFFF00006400FFFFFFFFFFFF5E
:101A3000FFFFFFFFFFFFFFFFFFFFFFFFFFFFFFFFB6
:101A4000FFFFFFFFFFFFFFFFFFFFFFFFFFFF0000A4
:101A5000B0040A000F00140019001E002300280023
:101A60002D00320037003C00410046004B00500082
:101A700055005A005F0000001400FFFFFFFFFFFF4A
:101A8000FFFFFFFFFFFFFFFFFFFFFFFFFFFFFFFF66
:101A9000FFFFFFFFFFFFFFFFFFFFFFFFFFFF000054
:101AA0001900FFFFFFFFFFFFFFFFFFFFFFFFFFFF2B
:101AB000FFFFFFFFFFFFFFFFFFFFFFFFFFFFFFFF36
:101AC000FFFFFFFFFFFF00001E00FFFFFFFFFFFF04
:101AD000FFFFFFFFCA031A046004B00414058C055D
:101AE00004069A06580748089C09FFFFFFFF0000FC
:101AF0002300FFFFFFFFFFFFFFFFFFFF5C038E03DD
:101B0000DE0324047E04E2045A05DC05860662072F
:101B10008E08FFFFFFFF00002800FFFFFFFFFFFF11
:101B2000FFFFFFFF2A037003B603F2034C04A60471
:101B300014059605360608073408FFFFFFFF00006E
:101B40002D00FFFFFFFFFFFFFFFFFFFF0C033E0322
:101B50008403CA031A046A04D8045A05F005C206AD
:101B6000DA07FFFFFFFF00003200FFFFFFFFFFFF6C
:101B7000FFFFFFFF0C0348038403CA031A04740425
:101B8000E2046405FA05CC06E407FFFFFFFF00004E
:101B90003700FFFFFFFFFFFFFFFFFFFFE402160319
:101BA0005C039803E8034204A6041E05BE057C06F8
:101BB0009407FFFFFFFF00003C00FFFFFFFFFFFF58
:101BC000FFFFFFFFE40216035203A203E8034204EF
:101BD000A6041E05B4057C069407FFFFFFFF000066
:101BE0004100FFFFFFFFFFFFFFFFFFFFC602F802FC
:101BF00034037003B60310046A04E2046E052C0675
:101C00004407FFFFFFFF00004600FFFFFFFFFFFF4D
:101C1000FFFFFFFF8A02B202E40220036603B6035D
:101C200010047E040005B405AE06FFFFFFFF0000B0
:101C30004B00FFFFFFFFFFFFFFFFFFFF4E02800291
:101C4000B202E4022A037003C0032404A60446057A
:101C50002C06FFFFFFFF00005000FFFFFFFFFFFF0C
:101C6000FFFFFFFF44027602A802E402200366039E
:101C7000B6031A0492043C052206FFFFFFFF000092
:101C80005500FFFFFFFFFFFFFFFFFFFFFFFFFFFF0D
:101C9000FFFFFFFFFFFFFFFFFFFFFFFFFFFFFFFF54
:101CA000FFFFFFFFFFFF00005A00FFFFFFFFFFFFE6
:101CB000FFFFFFFFFFFFFFFFFFFFFFFFFFFFFFFF34
:101CC000FFFFFFFFFFFFFFFFFFFFFFFFFFFF000022
:101CD0005F00FFFFFFFFFFFFFFFFFFFFFFFFFFFFB3
:101CE000FFFFFFFFFFFFFFFFFFFFFFFFFFFFFFFF04
:101CF000FFFFFFFFFFFF00006400FFFFFFFFFFFF8C
:101D0000FFFFFFFFFFFFFFFFFFFFFFFFFFFFFFFFE3
:101D1000FFFFFFFFFFFFFFFFFFFFFFFFFFFF0000D1
:101D2000E8030A000F00140019001E002300280019
:101D30002D00320037003C00410046004B005000AF
:101D400055005A005F00000014009A01FE0158027D
:101D5000B202020348039803DE032E047404C40491
:101D600014056E05C8053606AE064E073408000099
:101D700019009001F4014E029E02E40234037A033A
:101D8000C00310045604A604F6044605A0050E067A
:101D900086061C07F80700001E007C01E0013A02DD
:101DA0008A02D00216036603AC03F20338047E04F1
:101DB000CE041E057805E6055406EA06C6070000AF
:101DC00023007201D60126027602BC0202034803F8
:101DD0008E03D4031A046004B00400055A05BE053E
:101DE0002C06C2069E07000028006801CC011C02D8
:101DF0006202B202EE0234037A03C003FC034C0415
:101E00009204E2043C0596050E069A066C07000053
:101E10002D005E01C201120258029E02E40220035C
:101E20006603A203E8032E047404C4041E057805A7
:101E3000E60572064407000032005E01AE01FE01B5
:101E400044028A02D0020C0352038E03D4031A0404
:101E50006004A60400055A05C80554061C070000C6
:101E600037005401A401F4013A028002BC020203CB
:101E70003E037A03C003FC0342049204E2043C05DF
:101E8000AA053606FE0600003C004A01A401EA014C
:101E900030026C02B202EE022A036603AC03E803CE
:101EA0002E047E04CE0428058C051806D6060000F4
:101EB000410040019A01E001260262029E02DA021C
:101EC00016035C039803D4031A046004B0040A05E3
:101ED0007805FA05B8060000460040019001D601D9
:101EE0001C0258029402D0020C0348038403C0036E
:101EF00006044C049C04F6045A05DC059A0600000E
:101F00004B0036018601CC0112024E028A02C60243
:101F1000F80234037003B603F20338048804D804CB
:101F20004605BE057C06000050002C017C01C20164
:101F3000080244028002B202EE022A036603A203F0
:101F4000DE0324047404C4042805AA0568060000FE
:101F500055002C017C01B801FE013A026C02A80276
:101F6000E402160352038E03D40310046004B00489
:101F7000140596054A0600005A0022017201B801B4
:101F8000F401300262029E02D0020C034803840373
:101F9000C00306044C049C04000578052C060000D0
:101FA0005F0022016801AE01EA0126025802940294
:101FB000C602020334037003B603F2033804880434
:101FC000EC04640518060000640018016801A4010F
:101FD000E0011C024E028A02BC02F8022A036603D8
:101FE000A203E8032E047E04D80450050406000072
:101FF00014050A000F00140019001E002300280019
:102000002D00320037003C00410046004B005000DC
:1020100055005A005F0000001400FFFFFFFFFFFFA4
:10202000FFFFFFFFFFFFFFFFFFFFFFFFFFFFFFFFC0
:10203000FFFFFFFFFFFFFFFFFFFFFFFFFFFF0000AE
:102040001900FFFFFFFFFFFFFFFFFFFFFFFFFFFF85
:10205000FFFFFFFFFFFFFFFFFFFFFFFFFFFFFFFF90
:10206000FFFFFFFFFFFF00001E00FFFFFFFFFFFF5E
:10207000FFFFFFFFFFFFFFFFFFFFFFFFFFFFFFFF70
:10208000FFFFFFFFFFFFFFFFFFFFFFFFFFFF00005E
:102090002300FFFFFFFFFFFF4E028A02C6020C0370
:1020A0005C03AC0306047E040005A0056806760701
:1020B000F2084A0BFFFF00002800FFFFFFFFFFFFB1
:1020C00044028002C60202035203A203FC036A0414
:1020D000EC048C0554066207DE08360BFFFF000097
:1020E0002D00FFFFFFFFFFFF44028002BC0202033E
:1020F00048039803F2036004E20482054A064E078F
:10210000CA08180BFFFF00003200FFFFFFFFFFFFB0
:102110003A027602B202F8023E038E03E803560446
:10212000D804780540064407B608040BFFFF0000FA
:102130003700FFFFFFFFFFFF3A026C02A802EE022A
:1021400034038403E8034C04CE0464052C063007F2
:10215000A208F00AFFFF00003C00FFFFFFFFFFFFA7
:1021600030026C02A802E4022A037A03DE0342046E
:10217000C4045A05220626078E08DC0AFFFF000069
:102180004100FFFFFFFFFFFF300262029E02E402F8
:102190002A037A03D4033804BA0450050E06120742
:1021A0007A08C80AFFFF00004600FFFFFFFFFFFF9D
:1021B000260262029402DA0220037003CA032E048C
:1021C000A60446050406FE067008AA0AFFFF0000E2
:1021D0004B00FFFFFFFFFFFF1C0258029402D002DA
:1021E00016036603C00324049C043205F005F406BC
:1021F0005C08960AFFFF00005000FFFFFFFFFFFF93
:102200001C024E028A02C6020C035C03B6031A04C7
:1022100092042805E605E0064808820AFFFF000050
:102220005500FFFFFFFFFFFF12024E028002C602B1
:1022300002035203AC03100488041E05DC05D60615
:1022400034086E0AFFFF00005A00FFFFFFFFFFFF88
:10225000120244028002BC0202034803A2030604E5
:102260007E041405C805C20620085A0AFFFF0000B4
:102270005F00FFFFFFFFFFFF08023A027602B20293
:10228000F8023E039803FC0374040005BE05AE0685
:102290001608460AFFFF00006400FFFFFFFFFFFF74
:1022A00008023A026C02B202EE023E038E03F2030F
:1022B0006A04F604AA05A4060208320AFFFF000019
:1022C00078050A000F00140019001E0023002800E2
:1022D0002D00320037003C00410046004B0050000A
:1022E00055005A005F0000001400FFFFFFFFFFFFD2
:1022F000FFFFFFFFFFFFFFFFFFFFFFFFFFFFFFFFEE
:10230000FFFFFFFFFFFFFFFFFFFFFFFFFFFF0000DB
:102310001900FFFFFFFFFFFFFFFFFFFFFFFFFFFFB2
:10232000FFFFFFFFFFFFFFFFFFFFFFFFFFFFFFFFBD
:10233000FFFFFFFFFFFF00001E00FFFFFFFFFFFF8B
:10234000FFFFFFFFFFFFFFFFFFFFFFFFFFFFFFFF9D
:10235000FFFFFFFFFFFFFFFFFFFFFFFFFFFF00008B
:102360002300FFFFFFFFFFFF7E04BA04F6043205DF
:102370006405A005DC0518065E06A406F4065807E9
:10238000C6075C08FFFF00002800FFFFFFFFFFFFFC
:102390006A04A604E2041E0550058C05C80504065F
:1023A0004A069006E0064407B2074808FFFF00000F
:1023B0002D00FFFFFFFFFFFF56049204CE040A0525
:1023C0003C057805B405FA0536067C06D6063007C6
:1023D000A8073E08FFFF00003200FFFFFFFFFFFFDE
:1023E00042047E04BA04F60432056405A005E6053D
:1023F00022067206C2061C0794072A08FFFF000087
:102400003700FFFFFFFFFFFF2E046A04A604E2046B
:102410001E055A059605D20518065E06AE06120779
:1024200080072008FFFF00003C00FFFFFFFFFFFFC9
:102430001A0460049204CE040A0546058205BE050E
:1024400004064A06A406FE0676070C08FFFF0000F5
:102450004100FFFFFFFFFFFF10044C048804C40489
:10246000F60432056E05B405F00540069006F40644
:1024700062070208FFFF00004600FFFFFFFFFFFFAB
:10248000FC0338047404B004EC0428056405A005BA
:10249000E6052C068606E0065807EE07FFFF00005B
:1024A0004B00FFFFFFFFFFFFE803240460049C04D0
:1024B000D804140550059605D20522067206D606E4
:1024C0004E07E407FFFF00005000FFFFFFFFFFFF84
:1024D000DE031A0456049204CE040A05460582055A
:1024E000C80518066806CC063A07DA07FFFF0000A1
:1024F0005500FFFFFFFFFFFFCA03060442047E04EE
:10250000BA04F60432057805BE0504065E06B80670
:102510003007D007FFFF00005A00FFFFFFFFFFFF5B
:10252000C003FC0338047404B004EC0428056405FB
:10253000AA05FA054A06AE062607BC07FFFF0000FB
:102540005F00FFFFFFFFFFFFAC03E803240460040C
:102550009C04D8041E055A05A005F0054006A406F3
:102560001C07B207FFFF00006400FFFFFFFFFFFF33
:10257000A203DE031A0456049204CE040A05500591
:102580009605DC0536069A060807A807FFFF000037
:1025900078050A000F00140019001E00230028000F
:1025A0002D00320037003C00410046004B00500037
:1025B00055005A005F0000001400FFFFFFFFFFFFFF
:1025C000FFFFFFFFFFFFFFFFFFFFFFFFFFFFFFFF1B
:1025D000FFFFFFFFFFFFFFFFFFFFFFFFFFFF000009
:1025E0001900FFFFFFFFFFFFFFFFFFFFFFFFFFFFE0
:1025F000FFFFFFFFFFFFFFFFFFFFFFFFFFFFFFFFEB
:10260000FFFFFFFFFFFF00001E00FFFFFFFFFFFFB8
:10261000FFFFFFFFFFFFFFFFFFFFFFFFFFFFFFFFCA
:10262000FFFFFFFFFFFFFFFFFFFFFFFFFFFF0000B8
:102630002300FFFFFFFFFFFF9803F2034204920411
:10264000E20432058205D20522067C06E006440734
:10265000BC075208FFFF00002800FFFFFFFFFFFF3D
:102660008403DE032E047E04CE0414056405B40541
:1026700004065E06B8061C0794072A08FFFF000040
:102680002D00FFFFFFFFFFFF7003CA031A04600461
:10269000B004000546059605E60536069A06FE06D0
:1026A0006C070208FFFF00003200FFFFFFFFFFFF83
:1026B0005C03B60306044C049C04E204320578056E
:1026C000C80522067C06D6064E07DA07FFFF000083
:1026D0003700FFFFFFFFFFFF5203A203F20338049E
:1026E0007E04CE0414056405AA0504065E06B80639
:1026F0003007BC07FFFF00003C00FFFFFFFFFFFFAC
:102700003E038E03DE0324046A04BA040005460572
:102710009605E60540069A0612079E07FFFF000091
:102720004100FFFFFFFFFFFF34037A03CA031004D9
:102730005604A604EC0432058205D205220686065C
:10274000F4068007FFFF00004600FFFFFFFFFFFFCA
:1027500020037003B60306044C049204D8041E053B
:102760006405B4050E066806D6066207FFFF000082
:102770004B00FFFFFFFFFFFF16036603AC03F203EE
:1027800038047E04C4040A055005A005F00554066B
:10279000B8064407FFFF00005000FFFFFFFFFFFFE8
:1027A0000C0352039803DE0324046A04B004F60405
:1027B0003C058C05DC053606A4062607FFFF000055
:1027C0005500FFFFFFFFFFFFF80248038E03D4030D
:1027D0001A0456049C04E20428057805C80522065C
:1027E00090061207FFFF00005A00FFFFFFFFFFFFE8
:1027F000EE023E038403C00306044C048804CE04A6
:1028000014056405B4050E067206F406FFFF000009
:102810005F00FFFFFFFFFFFFE4022A037003B60320
:10282000FC0338047E04C4040A055005A005FA051B
:102830005E06E006FFFF00006400FFFFFFFFFFFFF2
:10284000DA0220036603AC03E8032E046A04B00432
:10285000F6043C058C05E6054A06CC06FFFF0000A1
:1028600078050A000F00140019001E00230028003C
:102870002D00320037003C00410046004B00500064
:1028800055005A005F0000001400FFFFFFFFFFFF2C
:10289000FFFFFFFFFFFFFFFFFFFFFFFFFFFFFFFF48
:1028A000FFFFFFFFFFFFFFFFFFFFFFFFFFFF000036
:1028B0001900FFFFFFFFFFFFFFFFFFFFFFFFFFFF0D
:1028C000FFFFFFFFFFFFFFFFFFFFFFFFFFFFFFFF18
:1028D000FFFFFFFFFFFF00001E00FFFFFFFFFFFFE6
:1028E000FFFFFFFFD4034C04BA043205AA052206F9
:1028F000AE064407E40798086009FFFFFFFF0000E9
:102900002300FFFFFFFFFFFFFFFFFFFF8403E8033C
:102910005604C4043205AA051806A4063A07DA07C5
:102920009808FFFFFFFF00002800FFFFFFFFFFFFE9
:10293000FFFFFFFF7A03DE034204A60414058205AD
:10294000FA0590060807BC078408FFFFFFFF000098
:102950002D00FFFFFFFFFFFFFFFFFFFF7003D4030A
:102960003804920400056E05E6058606FE06B207E9
:102970007A08FFFFFFFF00003200FFFFFFFFFFFFAD
:10298000FFFFFFFF6603CA032E049204F6046405EA
:10299000DC057C06F406A8077008FFFFFFFF0000B7
:1029A0003700FFFFFFFFFFFFFFFFFFFF5C03CA03CE
:1029B0002E048804EC045A05D2057206EA069E0726
:1029C0005208FFFFFFFF00003C00FFFFFFFFFFFF7B
:1029D000FFFFFFFF5203C00324048804E2045005F4
:1029E000C8056806D6069E073E08FFFFFFFF0000E9
:1029F0004100FFFFFFFFFFFFFFFFFFFF4803AC03A6
:102A000010047E04D8044605BE055E06C20694077F
:102A10002008FFFFFFFF00004600FFFFFFFFFFFF52
:102A2000FFFFFFFF34039803FC035604C404320580
:102A3000AA051806A4064407F807FFFFFFFF0000D9
:102A40004B00FFFFFFFFFFFFFFFFFFFF20037A03A5
:102A5000DE0342049C040A057805F0057C06120793
:102A6000C607FFFFFFFF00005000FFFFFFFFFFFF53
:102A7000FFFFFFFF16037A03CA0338049204000520
:102A80006405DC056806F406A807FFFFFFFF0000E9
:102A90005500FFFFFFFFFFFFFFFFFFFFFFFFFFFFEF
:102AA000FFFFFFFFFFFFFFFFFFFFFFFFFFFFFFFF36
:102AB000FFFFFFFFFFFF00005A00FFFFFFFFFFFFC8
:102AC000FFFFFFFFFFFFFFFFFFFFFFFFFFFFFFFF16
:102AD000FFFFFFFFFFFFFFFFFFFFFFFFFFFF000004
:102AE0005F00FFFFFFFFFFFFFFFFFFFFFFFFFFFF95
:102AF000FFFFFFFFFFFFFFFFFFFFFFFFFFFFFFFFE6
:102B0000FFFFFFFFFFFF00006400FFFFFFFFFFFF6D
:102B1000FFFFFFFFFFFFFFFFFFFFFFFFFFFFFFFFC5
:102B2000FFFFFFFFFFFFFFFFFFFFFFFFFFFF0000B3
:102B3000B0040A000F00140019001E002300280032
:102B40002D00320037003C00410046004B00500091
:102B500055005A005F00000014005802C6022A0304
:102B60008403CA031A046004A604F6043C05820523
:102B7000D20522067C06E0065807EE07CA080000C8
:102B800019003A029E02F80248039803DE03240467
:102B90006004A604EC0432057805C80522067C060C
:102BA000EA067607480800001E001C028002D002D8
:102BB00020036603AC03E8032E046A04A604EC04B5
:102BC00032058205D2052C0690061207DA070000AE
:102BD0002300FE016202B202F8023E037A03C00340
:102BE000FC0338047404B004F6043C058C05DC05D1
:102BF0004006C206800700002800EA014402940251
:102C0000DA0220035C039803D40306044204880418
:102C1000C4040A055005A00504067C063007000020
:102C20002D00D60130028002BC0202033E03700375
:102C3000AC03E8031A0456049204D8041E056E057A
:102C4000C8054006F40600003200CC011C026C02EC
:102C5000A802E402200352038E03C003FC033804DD
:102C60006A04B004F6043C0596050E06B80600009A
:102C70003700B801120258029402D00202033E0348
:102C80007003A203DE0310044C048804CE04140570
:102C90006E05DC057C0600003C00AE01FE0144022E
:102CA0008002BC02EE02200352038E03C003F20333
:102CB0002E046A04A604EC044605AA054A06000090
:102CC0004100A401F40130026C02A802DA020C03F4
:102CD0003E037003A203D40310044C048804CE0402
:102CE0001E058C052206000046009A01EA01260214
:102CF00062029402C602F8022A035C038E03C00338
:102D0000F2032E046A04B00400056405FA0500000D
:102D10004B009001D6011C024E028A02BC02E40262
:102D2000160348037A03AC03DE0310044C04920438
:102D3000E2044605D205000050008601CC010802DD
:102D400044027602A802DA020203340366039803FF
:102D5000CA03FC0338047404C4042805B405000045
:102D600055007C01C201FE013A026C029E02C602BD
:102D7000F802200352038403B603E803240460042A
:102D8000A6040A05960500005A007201B801F40174
:102D9000300262028A02BC02E40216033E037003A0
:102DA000A203D40306044C049204EC04780500004A
:102DB0005F007201B801EA0126024E028002A802F9
:102DC000DA02020334035C038E03C003FC033804FD
:102DD0007E04D8046405000064006801AE01EA01C5
:102DE0001C02440276029E02D002F8022003520323
:102DF0007A03AC03E80324046A04C4044605000013
:102E0000E8030A000F00140019001E002300280028
:102E10002D00320037003C00410046004B005000BE
:102E200055005A005F0000001400F00040018601C8
:102E3000D6011C026202B202F80248039803F203B0
:102E40005604BA043205BE0572064E07B6080000E5
:102E50001900E60036017C01C20108024E0294020C
:102E6000DA022A037A03CA032404920400058C05BB
:102E70002C0608075C0800001E00DC002201680127
:102E8000AE01F4013A027602BC020C035203AC0319
:102E9000FC036004CE045005F005C2060C080000D7
:102EA0002300D20018015E01A401E0011C026202AD
:102EB000A802EE0234038403DE033804A6041E05D0
:102EC000BE058606C60700002800D2000E01540188
:102ED0009001CC0112024E028A02D0021603660350
:102EE000B60310047E04F6048C054A068007000031
:102EF0002D00C8000E014A018601C201FE013A02FE
:102F00007602BC02020348039803F2035604CE047F
:102F10005A051806440700003200BE0004014001B3
:102F20007C01B801EA0126026202A802EE02340323
:102F30007A03D4033804A6043205E6050807000026
:102F40003700BE00FA0036017201A401E0011C0244
:102F500058029402D00216036603B60310047E04DE
:102F60000A05BE05D60600003C00B400F0002C01A6
:102F700068019A01D601080244028002BC020203E1
:102F800048039803FC036004E2048C05A4060000D7
:102F90004100B400F00022015E019001C201FE0177
:102FA00030026C02A802EE0234038403DE03420402
:102FB000C4046E05720600004600AA00E60018016F
:102FC00054018601B801EA01260262029E02DA0279
:102FD00020037003C0032404A60446054A0600002B
:102FE0004B00AA00DC0018014A017C01AE01E0019F
:102FF0001C024E028A02C6020C035203AC031004E8
:1030000088042805220600005000A000DC000E0104
:1030100040017201A401D601080244027602B20204
:10302000F8023E039803F2036A040005FA05000063
:103030005500A000D2000401360168019A01CC01BC
:10304000FE0130026C02A802E4022A037A03DE03C6
:103050004C04E204DC0500005A00A000D200040188
:1030600036015E019001C201F40126025802940269
:10307000DA0220036603CA033804CE04B405000054
:103080005F009600C800FA002C015E018601B801BD
:10309000EA011C024E028A02C6020C035203AC0370
:1030A0001A04B0049605000064009600C800FA00F7
:1030B000220154017C01AE01E001120244027602B9
:1030C000BC02F80248039803060492047805000045
:1030D00078050A000F00140019001E0023002800C4
:1030E0002D00320037003C00410046004B005000EC
:1030F00055005A005F0000001400FFFFFFFFFFFFB4
:10310000FFFFFFFFFFFFFFFFFFFFFFFFFFFFFFFFCF
:10311000FFFFFFFFFFFFFFFFFFFFFFFFFFFF0000BD
:103120001900FFFFFFFFFFFFFFFFFFFFFFFFFFFF94
:10313000FFFFFFFFFFFFFFFFFFFFFFFFFFFFFFFF9F
:10314000FFFFFFFFFFFF00001E00FFFFFFFFFFFF6D
:10315000FFFFFFFF38046A049C04E20414055005D5
:103160009605D20518067C06E006FFFFFFFF00006B
:103170002300FFFFFFFFFFFFFFFFFFFFC003F2037E
:103180002E0460049204CE040A0546059605DC056B
:103190004A06FFFFFFFF00002800FFFFFFFFFFFFC1
:1031A000FFFFFFFFAC03DE03060438047404A6042B
:1031B000E20428056E05C8052C06FFFFFFFF00008E
:1031C0002D00FFFFFFFFFFFFFFFFFFFF8E03CA037E
:1031D000FC032E046A049C04D80414056405BE058F
:1031E0000E06FFFFFFFF00003200FFFFFFFFFFFFA3
:1031F000FFFFFFFF8403B603E80324045604920490
:10320000CE040A055A05B4050406FFFFFFFF0000BF
:103210003700FFFFFFFFFFFFFFFFFFFF7A03AC0355
:10322000DE031A044C048804C40400055005AA05F2
:10323000FA05FFFFFFFF00003C00FFFFFFFFFFFF5D
:10324000FFFFFFFF7003A203D403100442047E04B7
:10325000BA0400054605A005F005FFFFFFFF0000CA
:103260004100FFFFFFFFFFFFFFFFFFFF5C0398032D
:10327000CA03FC0338047404B004F6043C05960544
:10328000DC05FFFFFFFF00004600FFFFFFFFFFFF21
:10329000FFFFFFFF2A035C038E03CA03FC0338040D
:1032A0006A04B00400055A05C805FFFFFFFF0000CF
:1032B0004B00FFFFFFFFFFFFFFFFFFFF0203340391
:1032C00066039803D403100456049204D80432050C
:1032D0009605FFFFFFFF00005000FFFFFFFFFFFF0D
:1032E000FFFFFFFFF802340366038E03CA030604E0
:1032F00042047E04CE041E058205FFFFFFFF00008E
:103300005500FFFFFFFFFFFFFFFFFFFFFFFFFFFF76
:10331000FFFFFFFFFFFFFFFFFFFFFFFFFFFFFFFFBD
:10332000FFFFFFFFFFFF00005A00FFFFFFFFFFFF4F
:10333000FFFFFFFFFFFFFFFFFFFFFFFFFFFFFFFF9D
:10334000FFFFFFFFFFFFFFFFFFFFFFFFFFFF00008B
:103350005F00FFFFFFFFFFFFFFFFFFFFFFFFFFFF1C
:10336000FFFFFFFFFFFFFFFFFFFFFFFFFFFFFFFF6D
:10337000FFFFFFFFFFFF00006400FFFFFFFFFFFFF5
:10338000FFFFFFFFFFFFFFFFFFFFFFFFFFFFFFFF4D
:10339000FFFFFFFFFFFFFFFFFFFFFFFFFFFF00003B
:1033A00078050A000F00140019001E0023002800F1
:1033B0002D00320037003C00410046004B00500019
:1033C00055005A005F0000001400FFFFFFFFFFFFE1
:1033D000FFFFFFFFFFFFFFFFFFFFFFFFFFFFFFFFFD
:1033E000FFFFFFFFFFFFFFFFFFFFFFFFFFFF0000EB
:1033F0001900FFFFFFFFFFFFFFFFFFFFFFFFFFFFC2
:10340000FFFFFFFFFFFFFFFFFFFFFFFFFFFFFFFFCC
:10341000FFFFFFFFFFFF00001E00FFFFFFFFFFFF9A
:10342000FFFFFFFFAC03E803240460049C04F604E0
:103430004605B4052C06CC06A807FFFFFFFF0000D9
:103440002300FFFFFFFFFFFFFFFFFFFF66038E0369
:10345000C003FC0338048804D8043205AA053606E4
:103460000807FFFFFFFF00002800FFFFFFFFFFFF2F
:10347000FFFFFFFF52038403B603F2032404740426
:10348000BA041E0582052206EA06FFFFFFFF0000C0
:103490002D00FFFFFFFFFFFFFFFFFFFF48037A0341
:1034A000AC03E8031A046A04B0040A056E051806A2
:1034B000E006FFFFFFFF00003200FFFFFFFFFFFFFE
:1034C000FFFFFFFF48037003AC03DE031A046A0426
:1034D000A6040A056E050E06D606FFFFFFFF0000D4
:1034E0003700FFFFFFFFFFFFFFFFFFFF3E03660305
:1034F000A203D40310046004A604000564050406B6
:10350000CC06FFFFFFFF00003C00FFFFFFFFFFFFB7
:10351000FFFFFFFF3E0370039803D403100456041B
:103520009C0400055005FA05B806FFFFFFFF0000E8
:103530004100FFFFFFFFFFFFFFFFFFFF3E035C03B4
:103540008E03CA0306044C049C04F6043205F005FD
:10355000AE06FFFFFFFF00004600FFFFFFFFFFFF7B
:10356000FFFFFFFF0C033E037003A203DE031A04F8
:103570006004BA042805B4056806FFFFFFFF0000D9
:103580004B00FFFFFFFFFFFFFFFFFFFFF8022003DD
:1035900048037A03B603FC0342049204F60496053A
:1035A0003606FFFFFFFF00005000FFFFFFFFFFFF99
:1035B000FFFFFFFFEE02160348037A03B603F20390
:1035C00038049204F60482052206FFFFFFFF000084
:1035D0005500FFFFFFFFFFFFFFFFFFFFFFFFFFFFA4
:1035E000FFFFFFFFFFFFFFFFFFFFFFFFFFFFFFFFEB
:1035F000FFFFFFFFFFFF00005A00FFFFFFFFFFFF7D
:10360000FFFFFFFFFFFFFFFFFFFFFFFFFFFFFFFFCA
:10361000FFFFFFFFFFFFFFFFFFFFFFFFFFFF0000B8
:103620005F00FFFFFFFFFFFFFFFFFFFFFFFFFFFF49
:10363000FFFFFFFFFFFFFFFFFFFFFFFFFFFFFFFF9A
:10364000FFFFFFFFFFFF00006400FFFFFFFFFFFF22
:10365000FFFFFFFFFFFFFFFFFFFFFFFFFFFFFFFF7A
:10366000FFFFFFFFFFFFFFFFFFFFFFFFFFFF000068
:1036700078050A000F00140019001E00230028001E
:103680002D00320037003C00410046004B00500046
:1036900055005A005F0000001400FFFFFFFFFFFF0E
:1036A000FFFFFFFFFFFFFFFFFFFFFFFFFFFFFFFF2A
:1036B000FFFFFFFFFFFFFFFFFFFFFFFFFFFF000018
:1036C0001900FFFFFFFFFFFFFFFFFFFFFFFFFFFFEF
:1036D000FFFFFFFFFFFFFFFFFFFFFFFFFFFFFFFFFA
:1036E000FFFFFFFFFFFF00001E00FFFFFFFFFFFFC8
:1036F000FFFFFFFFD40342049C0414058C0504065D
:103700009A0644070C080609500AFFFFFFFF000055
:103710002300FFFFFFFFFFFFFFFFFFFF7A03D4033C
:1037200038049C040A0582050406A40658073E08CE
:103730006A09FFFFFFFF00002800FFFFFFFFFFFFF8
:10374000FFFFFFFF7003CA031A047E04EC04640544
:10375000DC057C0626070C083809FFFFFFFF000088
:103760002D00FFFFFFFFFFFFFFFFFFFF6603C0030A
:103770001A047E04E2045A05DC0572061207F807F3
:103780002409FFFFFFFF00003200FFFFFFFFFFFFE4
:10379000FFFFFFFF5203B60310046A04D804460576
:1037A000C8055E060807EE071A09FFFFFFFF0000C5
:1037B0003700FFFFFFFFFFFFFFFFFFFF5203AC03D8
:1037C00006046A04CE044605BE055406FE06E40758
:1037D0001009FFFFFFFF00003C00FFFFFFFFFFFF9E
:1037E000FFFFFFFF4803A203FC036004C4043C0581
:1037F000AA054006F406DA07FC08FFFFFFFF0000F9
:103800004100FFFFFFFFFFFFFFFFFFFF480398039B
:10381000F2034C04BA042805A0053606EA06C607DA
:10382000E808FFFFFFFF00004600FFFFFFFFFFFF6C
:10383000FFFFFFFF16036603B6031A047404E204D5
:103840005A05E605860662077008FFFFFFFF0000C5
:103850004B00FFFFFFFFFFFFFFFFFFFFEE023E03F6
:103860008E03E8034204A6041E05AA0554061207A7
:103870002008FFFFFFFF00005000FFFFFFFFFFFFDA
:10388000FFFFFFFFE40234038403DE0342049C04D1
:103890000A0596054006FE060C08FFFFFFFF000024
:1038A0005500FFFFFFFFFFFFFFFFFFFFFFFFFFFFD1
:1038B000FFFFFFFFFFFFFFFFFFFFFFFFFFFFFFFF18
:1038C000FFFFFFFFFFFF00005A00FFFFFFFFFFFFAA
:1038D000FFFFFFFFFFFFFFFFFFFFFFFFFFFFFFFFF8
:1038E000FFFFFFFFFFFFFFFFFFFFFFFFFFFF0000E6
:1038F0005F00FFFFFFFFFFFFFFFFFFFFFFFFFFFF77
:10390000FFFFFFFFFFFFFFFFFFFFFFFFFFFFFFFFC7
:10391000FFFFFFFFFFFF00006400FFFFFFFFFFFF4F
:10392000FFFFFFFFFFFFFFFFFFFFFFFFFFFFFFFFA7
:10393000FFFFFFFFFFFFFFFFFFFFFFFFFFFF000095
:10394000E8030A000F00140019001E0023002800DD
:103950002D00320037003C00410046004B00500073
:1039600055005A005F0000001400FFFFFFFFFFFF3B
:10397000FFFFFFFFFFFFFFFFFFFFFFFFFFFFFFFF57
:10398000FFFFFFFFFFFFFFFFFFFFFFFFFFFF000045
:103990001900FFFFFFFFFFFFFFFFFFFFFFFFFFFF1C
:1039A000FFFFFFFFFFFFFFFFFFFFFFFFFFFFFFFF27
:1039B000FFFFFFFFFFFF00001E00FFFFFFFFFFFFF5
:1039C000FFFFFFFF0C0352038403B603E803240444
:1039D00060049C04EC043C05A005FFFFFFFF000011
:1039E0002300FFFFFFFFFFFFFFFFFFFFBC02EE0210
:1039F000200352037A03B603E80324046A04BA04DA
:103A00001405FFFFFFFF00002800FFFFFFFFFFFF7F
:103A1000FFFFFFFF9E02D0020203340366039803F8
:103A2000D403060442049204EC04FFFFFFFF0000ED
:103A30002D00FFFFFFFFFFFFFFFFFFFF8A02BC0219
:103A4000EE02200348037A03AC03E8032E04740457
:103A5000CE04FFFFFFFF00003200FFFFFFFFFFFF6C
:103A6000FFFFFFFF9402C602EE022003520384030D
:103A7000C003FC0338048804E204FFFFFFFF0000DA
:103A80003700FFFFFFFFFFFFFFFFFFFF8002B202D3
:103A9000D002020334036603A203DE031A046A049D
:103AA000C404FFFFFFFF00003C00FFFFFFFFFFFF1C
:103AB000FFFFFFFF8002A802DA020C033E0370033F
:103AC000B603E8032E047404CE04FFFFFFFF0000DA
:103AD0004100FFFFFFFFFFFFFFFFFFFF6C029E02A1
:103AE000C602F8022A035C039803CA0310045604B2
:103AF000B004FFFFFFFF00004600FFFFFFFFFFFFD6
:103B0000FFFFFFFF440276029402C602F8022A0376
:103B10005C039803D40324047404FFFFFFFF000038
:103B20004B00FFFFFFFFFFFFFFFFFFFF1C024E02E6
:103B30007602A802D002020334037003A203E80352
:103B40004204FFFFFFFF00005000FFFFFFFFFFFFE9
:103B5000FFFFFFFF1C024E027602A802DA020C03EE
:103B60003E037003AC03F2034C04FFFFFFFF0000B1
:103B70005500FFFFFFFFFFFFFFFFFFFFFFFFFFFFFE
:103B8000FFFFFFFFFFFFFFFFFFFFFFFFFFFFFFFF45
:103B9000FFFFFFFFFFFF00005A00FFFFFFFFFFFFD7
:103BA000FFFFFFFFFFFFFFFFFFFFFFFFFFFFFFFF25
:103BB000FFFFFFFFFFFFFFFFFFFFFFFFFFFF000013
:103BC0005F00FFFFFFFFFFFFFFFFFFFFFFFFFFFFA4
:103BD000FFFFFFFFFFFFFFFFFFFFFFFFFFFFFFFFF5
:103BE000FFFFFFFFFFFF00006400FFFFFFFFFFFF7D
:103BF000FFFFFFFFFFFFFFFFFFFFFFFFFFFFFFFFD5
:103C0000FFFFFFFFFFFFFFFFFFFFFFFFFFFF0000C2
:103C1000DC050A000F00140019001E002300280014
:103C20002D00320037003C00410046004B005000A0
:103C300055005A005F0000001400D6014E02B20287
:103C40000C036603B60306045604A604F6044605F0
:103C5000A005FA055E06D6064E07F807DE08000046
:103C60001900D6014402A8020C035C03AC03FC0358
:103C70004C049C04EC0446059605FA055E06CC0649
:103C80004E07E407D40800001E00D6014402A80233
:103C900002035C03AC03FC034C049C04EC043C05F1
:103CA0009605F0055406C2064407E407CA0800005A
:103CB0002300CC014402A80202035203A203F20330
:103CC00042049204E20432058C05E6054A06B80671
:103CD0003A07DA07C00800002800CC0144029E021F
:103CE000F8025203A203F20342049204E2043205F2
:103CF0008205DC054006AE063007D007B608000096
:103D00002D00CC013A029E02F80248039803E80312
:103D100038048804D80428058205DC053606A40684
:103D20002607C607AC0800003200CC013A029E020A
:103D3000F80248039803E80338047E04CE041E0505
:103D40007805D2053606A4061C07BC07A2080000A9
:103D50003700CC013A029402EE0248039803DE03D6
:103D60002E047E04CE041E056E05C8052C069A0698
:103D70001207B207980800003C00C201300294020A
:103D8000EE023E038E03DE032E047404C404140505
:103D90006E05C805220690061207A8078E080000C7
:103DA0004100C20130029402E4023E038E03D403B8
:103DB00024047404C40414056405BE0522068606A2
:103DC00008079E07840800004600C20130028A02EC
:103DD000E40234038403D40324046A04BA040A0505
:103DE0005A05B40518068606FE069E0784080000DC
:103DF0004B00C20126028A02E40234038403CA0390
:103E00001A046A04B00400055A05B4050E067C06BF
:103E1000F40694077A0800005000B80126028A02CE
:103E2000DA0234037A03CA031A046004B0040005FA
:103E30005005AA0504067206EA068A077008000003
:103E40005500B80126028002DA022A037A03CA0367
:103E500010046004A604EC043C05A00504066806F2
:103E6000EA068007660800005A00B80126028002B0
:103E7000DA022A037003C00310045604A604F604F1
:103E80004605A005FA056806E00676075C0800000E
:103E90005F00B8011C028002D00220037003C0033F
:103EA000060456049C04EC043C059605F0055E06E9
:103EB000D6067607520800006400AE011C027602A6
:103EC000D00220037003B60306044C049C04EC04E7
:103ED0003C058C05F0055406CC066C07480800002C
:103EE0000E060A000F00140019001E00230028000F
:103EF0002D00320037003C00410046004B005000CE
:103F000055005A005F0000001400FFFFFFFFFFFF95
:103F1000FFFFFFFFFFFFFFFFFFFFFFFFFFFFFFFFB1
:103F2000FFFFFFFFFFFFFFFFFFFFFFFFFFFF00009F
:103F30001900FFFFFFFFFFFFFFFFFFFFFFFFFFFF76
:103F4000FFFFFFFFFFFFFFFFFFFFFFFFFFFFFFFF81
:103F5000FFFFFFFFFFFF00001E00FFFFFFFFFFFF4F
:103F6000FFFFFFFFFFFFFFFFFFFFFFFFFFFFFFFF61
:103F7000FFFFFFFFFFFFFFFFFFFFFFFFFFFF00004F
:103F80002300FFFFFFFFFFFFA20306046004BA0443
:103F900014056E05C80522067C06E0064E07BC0720
:103FA0004808F208FFFF00002800FFFFFFFFFFFFA7
:103FB0008E03E80342049C04F6044605A005FA05B6
:103FC0005406AE061C078A071608B608FFFF000055
:103FD0002D00FFFFFFFFFFFF7003D40324047E04C6
:103FE000CE0428057805D2052C068606EA06620767
:103FF000E4078408FFFF00003200FFFFFFFFFFFF20
:104000005C03B60310046004B0040A055A05AA054F
:1040100004065E06C2063A07BC075C08FFFF000004
:104020003700FFFFFFFFFFFF4803A203F2034C042A
:104030009C04EC043C058C05E6054006A40612072A
:104040008A072A08FFFF00003C00FFFFFFFFFFFF79
:1040500034038E03DE032E047E04CE041E056E059B
:10406000C80522067C06EA0662070208FFFF000078
:104070004100FFFFFFFFFFFF20037A03CA031A047A
:104080006A04B00400055005AA05FA055E06CC06D0
:104090004407DA07FFFF00004600FFFFFFFFFFFFB6
:1040A00016036603B60306044C049C04EC043C05AA
:1040B0008C05DC054006A4061C07BC07FFFF0000BA
:1040C0004B00FFFFFFFFFFFF02035203A203F203B7
:1040D00038048804CE041E056E05C805220686062F
:1040E000FE069407FFFF00005000FFFFFFFFFFFFE9
:1040F000F80248038E03DE0324047404BA040A059C
:104100005A05AA0504066806E0067607FFFF0000C8
:104110005500FFFFFFFFFFFFE40234038403CA03DF
:1041200010046004A604EC043C059605F005540652
:10413000C2065807FFFF00005A00FFFFFFFFFFFF06
:10414000DA022A037003B60306044C049204D8046E
:1041500028057805D2053606A4063A07FFFF0000B9
:104160005F00FFFFFFFFFFFFD00216036603AC03F3
:10417000F20338047E04C40414056405BE05180661
:1041800090061C07FFFF00006400FFFFFFFFFFFF1A
:10419000C6020C0352039803DE0324046A04B0042D
:1041A00000055005AA0504067206FE06FFFF000082
:1041B000E8030A000F00140019001E002300280065
:1041C0002D00320037003C00410046004B005000FB
:1041D00055005A005F0000001400FFFFFFFFFFFFC3
:1041E000FFFFFFFFFFFFFFFFFFFFFFFFFFFFFFFFDF
:1041F000FFFFFFFFFFFFFFFFFFFFFFFFFFFF0000CD
:104200001900FFFFFFFFFFFFFFFFFFFFFFFFFFFFA3
:10421000FFFFFFFFFFFFFFFFFFFFFFFFFFFFFFFFAE
:10422000FFFFFFFFFFFF00001E00FFFFFFFFFFFF7C
:10423000FFFFFFFFC60216036603AC03FC03560430
:10424000A6040A056E05E6057C06FFFFFFFF0000D9
:104250002300FFFFFFFFFFFFFFFFFFFF7602B20219
:10426000F8023E037A03CA031A047404CE043C0520
:10427000B405FFFFFFFF00002800FFFFFFFFFFFF67
:10428000FFFFFFFF58029402D00216035C03A20353
:10429000E8033804920400057805FFFFFFFF0000E3
:1042A0002D00FFFFFFFFFFFFFFFFFFFF3A02760237
:1042B000B202F80234037A03C00310046A04C4048F
:1042C0003C05FFFFFFFF00003200FFFFFFFFFFFF85
:1042D000FFFFFFFF3A027602BC02F8023E037A03B8
:1042E000CA031A046A04CE044605FFFFFFFF00005C
:1042F0003700FFFFFFFFFFFFFFFFFFFF2602620205
:104300009E02D00216035203A203E80342049C0457
:104310001405FFFFFFFF00003C00FFFFFFFFFFFF52
:10432000FFFFFFFF260262029E02DA0216035C0311
:10433000AC03F2034204A6041405FFFFFFFF0000D4
:104340004100FFFFFFFFFFFFFFFFFFFF08024E02DC
:104350008A02C60202033E038403CA031A047404D9
:10436000E204FFFFFFFF00004600FFFFFFFFFFFF2B
:10437000FFFFFFFFEA01260258029402C602020371
:104380003E038E03D4032E049204FFFFFFFF0000C0
:104390004B00FFFFFFFFFFFFFFFFFFFFCC01FE0110
:1043A00030026C029E02D0020C0352039803E80311
:1043B0004C04FFFFFFFF00005000FFFFFFFFFFFF67
:1043C000FFFFFFFFD601FE01300262029E02DA0209
:1043D000160352039803F2035604FFFFFFFF000089
:1043E0005500FFFFFFFFFFFFFFFFFFFFFFFFFFFF86
:1043F000FFFFFFFFFFFFFFFFFFFFFFFFFFFFFFFFCD
:10440000FFFFFFFFFFFF00005A00FFFFFFFFFFFF5E
:10441000FFFFFFFFFFFFFFFFFFFFFFFFFFFFFFFFAC
:10442000FFFFFFFFFFFFFFFFFFFFFFFFFFFF00009A
:104430005F00FFFFFFFFFFFFFFFFFFFFFFFFFFFF2B
:10444000FFFFFFFFFFFFFFFFFFFFFFFFFFFFFFFF7C
:10445000FFFFFFFFFFFF00006400FFFFFFFFFFFF04
:10446000FFFFFFFFFFFFFFFFFFFFFFFFFFFFFFFF5C
:10447000FFFFFFFFFFFFFFFFFFFFFFFFFFFF00004A
:1044800078050A000F00140019001E002300280000
:104490002D00320037003C00410046004B00500028
:1044A00055005A005F00FFFF1400FFFFFFFFFFFFF2
:1044B000FFFFFFFFFFFFFFFFFFFFFFFFFFFFFFFF0C
:1044C000FFFFFFFFFFFFFFFFFFFFFFFFFFFF0000FA
:1044D0001900FFFFFFFFFFFFFFFFFFFFFFFFFFFFD1
:1044E000FFFFFFFFFFFFFFFFFFFFFFFFFFFFFFFFDC
:1044F000FFFFFFFFFFFF00001E00FFFFFFFFFFFFAA
:10450000FFFFFFFF9C04EC0432057805D205180676
:104510007C06D6064407BC074808FFFFFFFF0000E3
:104520002300FFFFFFFFFFFFFFFFFFFF2E047404C8
:10453000BA0400055005A005E6054006A4061C07C0
:10454000A807FFFFFFFF00002800FFFFFFFFFFFF9E
:10455000FFFFFFFF100456049C04E20432057805B7
:10456000C80522068606FE068007FFFFFFFF000043
:104570002D00FFFFFFFFFFFFFFFFFFFFFC034204D3
:104580007E04C40414056405AA0504066806E00652
:104590006207FFFFFFFF00003200FFFFFFFFFFFF8A
:1045A000FFFFFFFF060456049C04E2043205820567
:1045B000D2052C06900608079407FFFFFFFF0000B6
:1045C0003700FFFFFFFFFFFFFFFFFFFFE803380497
:1045D0007E04C40414056405B4050E067C06EA06D0
:1045E0007607FFFFFFFF00003C00FFFFFFFFFFFF1C
:1045F000FFFFFFFFFC0342049204D804280578055E
:10460000C8052C06900608079407FFFFFFFF00006F
:104610004100FFFFFFFFFFFFFFFFFFFFDE032E0450
:104620007404BA040A055A05AA050E067C06F406A7
:104630008007FFFFFFFF00004600FFFFFFFFFFFFB7
:10464000FFFFFFFFAC03F20342047E04CE041E050D
:104650006E05D2052C06A4063007FFFFFFFF000001
:104660004B00FFFFFFFFFFFFFFFFFFFF7A03C003C9
:1046700006044C049C04EC0432059605F00568061B
:10468000EA06FFFFFFFF00005000FFFFFFFFFFFFF4
:10469000FFFFFFFF7A03CA0310046004A604F604B8
:1046A0004605AA0504067C060807FFFFFFFF000079
:1046B0005500FFFFFFFFFFFFFFFFFFFFFFFFFFFFB3
:1046C000FFFFFFFFFFFFFFFFFFFFFFFFFFFFFFFFFA
:1046D000FFFFFFFFFFFF00005A00FFFFFFFFFFFF8C
:1046E000FFFFFFFFFFFFFFFFFFFFFFFFFFFFFFFFDA
:1046F000FFFFFFFFFFFFFFFFFFFFFFFFFFFF0000C8
:104700005F00FFFFFFFFFFFFFFFFFFFFFFFFFFFF58
:10471000FFFFFFFFFFFFFFFFFFFFFFFFFFFFFFFFA9
:10472000FFFFFFFFFFFF00006400FFFFFFFFFFFF31
:10473000FFFFFFFFFFFFFFFFFFFFFFFFFFFFFFFF89
:10474000FFFFFFFFFFFFFFFFFFFFFFFFFFFF000077
:104750002020202020202020202020202020202059
:1047600020200011007F96290001007F9628003A42
:104770000155B701C6E808408A00002919A533C0D1
:10478000020D0DC1024300C20100C50400480048EB
:10479000B40100B60302023BE00F0F211C0B0E0810
:1047A000499838091103141000E10F0F2F2B0C0E3C
:1047B00006477637071104231E00B00100B3040238
:1047C000000000B40100D003074218D10300071015
:1047D000D2020102D3020102D4020102C005123B3F
:1047E000000211C103101088C50103C60102C80CE4
:1047F000003236450616377577540C00CC0100F6AA
:1048000003010100CF03008130ED0464031281E84D
:1048100003851078CB05392C003402F70120EA0219
:104820000000B00100B102001BB40100C00121C1B1
:104830000111C5023F3CC701B5360148F20100260F
:104840000101E00F0F26240B0E0954A8460C17098E
:104850000F0700E10F00191B0410072A4739030650
:104860000630380F360100B00100C10410100202FA
:10487000C006003500000102C50104D2020104CACD
:104880000100EA01807F01F20B16160308080808F0
:1048900010041616FD03110235B2050C0C0033335B
:1048A000B70135BB012BC00104C20201FFC30111D6
:1048B000C40120C6010FD002A4A1E00ED000050E55
:1048C000150D3743470915121619E10ED000050DD5
:1048D0000C062D44400E1C1816193A01557F0A008B
:1048E000000000000000000000000000000000FFC9
:1048F000FF0F0000040062080008080003000C011C
:10490000030B5A02030609030317100403002305CF
:10491000030017060309630703090C08030C1009B9
:1049200003322210001600110001011200000013D2
:1049300000010000013003010137020301000D8076
:104940000200610201B0C1FFFF320001000001025C
:1049500000000103003010090001000C000000906D
:104960000000800F000000100200001102EF001292
:1049700002000013028F0100050000010500000283
:10498000055F000104010004040000FFFF3200077E
:10499000000001FFFF32000002000001020000E5FC
:1049A00000F0780100000102000002030030100452
:1049B0000000000500000008000702090000000ACE
:1049C0000000000C0000000D0000000F00000010AF
:1049D0000000001100070012000000130000000793
:1049E000000100FFFFC8001000901611002702FF11
:1049F000FF320012000D00FFFF32001300001229E9
:104A0000000A002B000D00FFFF32002000000021F3
:104A100000000030000000310004043200030035C3
:104A2000000504360008083700070438000303397E
:104A30000007073C0004053D0008086000002761EE
:104A40000001006A00000080000000810000008278
:104A5000000000830000008400000085000000903A
:104A60000010009200000007003301E50000800004
:104A700000010001000001020000070300301004E3
:104A800000000008000202090000000A0000000CFB
:104A90000000000D0000000F0000001000000011D9
:104AA0000007001200000013000000FFFF3200109A
:104AB00000B01711000700FFFF0A0012003A01FFC3
:104AC000FF0A001300001A29000C00FFFF0A003043
:104AD00000000031000505320004003500060036F4
:104AE0000007073700050138000200390007073CBE
:104AF0000004073D000708600000A7610001006A8C
:104B00000000002100000020000000800000008163
:104B10000000008200000083000000840000008587
:104B20000000009000100092000000930003009528
:104B3000001001970000009800000007007301FFBB
:104B4000FF320001000001020000070300301008DE
:104B5000000203090000000A000800100000001114
:104B60000005001200000013000000FFFF640010A9
:104B700000B012FFFF320011000700FFFF320012E9
:104B8000008C001300001729002000FFFF320030C6
:104B90000000003100060132000101350006013637
:104BA0000003023700000038000707390004023C08
:104BB0000006013D000301600000A76100010090B4
:104BC00000300007003301FFFF3200150030009A6B
:104BD0000010001100200010002834120002001301
:104BE000003810FFFF280012001200FFFF280010FD
:104BF00000203413004530FFFF4600300000003134
:104C000000020432000703330004033400040035BB
:104C10000001043600070737000503380010063985
:104C2000001006010000010200000303003010081C
:104C30000008080A000800600000276100010090D9
:104C4000003E019200000193000001A0000030A38B
:104C500000100007000100070021000700230007E3
:104C60000033000700330100000000003E5B4F5B93
:104C70003E3E6B4F6B3E1C3E7C3E1C183C7E3C18FF
:104C80001C577D571C1C5E7F5E1C00183C1800FFE3
:104C9000E7C3E7FF0018241800FFE7DBE7FF304811
:104CA0003A060E2629792926407F050507407F050B
:104CB000253F5A3CE73C5A7F3E1C1C08081C1C3E02
:104CC0007F14227F22145F5F005F5F06097F017FF0
:104CD000006689956A606060606094A2FFA2940893
:104CE000047E040810207E201008082A1C08081CD6
:104CF0002A08081E101010100C1E0C1E0C30383E16
:104D00003830060E3E0E06000000000000005F0076
:104D1000000007000700147F147F14242A7F2A1242
:104D20002313086462364956205000080703000028
:104D30001C2241000041221C002A1C7F1C2A08085A
:104D40003E0808008070300008080808080000606D
:104D5000600020100804023E5149453E00427F4059
:104D60000072494949462141494D331814127F10B8
:104D700027454545393C4A49493141211109073602
:104D800049494936464949291E000014000000409F
:104D90003400000008142241141414141400412299
:104DA000140802015909063E415D594E7C12111248
:104DB0007C7F494949363E414141227F4141413E44
:104DC0007F494949417F090909013E414151737FAA
:104DD0000808087F00417F41002040413F017F08D3
:104DE0001422417F404040407F021C027F7F040824
:104DF000107F3E4141413E7F090909063E41512154
:104E00005E7F09192946264949493203017F01037A
:104E10003F4040403F1F2040201F3F4038403F63FD
:104E20001408146303047804036159494D43007F57
:104E30004141410204081020004141417F04020128
:104E400002044040404040000307080020545478CA
:104E5000407F284444383844444428384444287F18
:104E6000385454541800087E090218A4A49C787F72
:104E70000804047800447D40002040403D007F103D
:104E800028440000417F40007C047804787C0804BA
:104E900004783844444438FC18242418182424186E
:104EA000FC7C08040408485454542404043F44245B
:104EB0003C4040207C1C2040201C3C4030403C4476
:104EC000281028444C9090907C4464544C44000832
:104ED0003641000000770000004136080002010260
:104EE00004023C2623263C1EA1A161123A40402028
:104EF0007A385454555921555579412254547842A1
:104F0000215554784020545579400C1E5272123964
:104F1000555555593954545459395554545800001D
:104F2000457C410002457D420001457C407D1211D7
:104F3000127DF0282528F07C545545002054547CDF
:104F4000547C0A097F4932494949323A4444443A37
:104F5000324A4848303A4141217A3A42402078006A
:104F60009DA0A07D3D4242423D3D4040403D3C240D
:104F7000FF2424487E4943662B2FFC2F2BFF092951
:104F8000F620C0887E090320545479410000447DF6
:104F9000413048484A32384040227A007A0A0A7240
:104FA0007D0D19317D2629292F28262929292630EA
:104FB000484D4020380808080808080808382F100D
:104FC000C8ACBA2F102834FA00007B000008142A5D
:104FD000142222142A14085500550055AA55AA5522
:104FE000AAFF55FF55FF000000FF00101010FF0042
:104FF000141414FF001010FF00FF1010F010F01434
:105000001414FC001414F700FF0000FF00FF141438
:10501000F404FC141417101F10101F101F14141484
:105020001F00101010F0000000001F101010101FC3
:1050300010101010F010000000FF101010101010D1
:10504000101010FF10000000FF140000FF00FF0010
:10505000001F10170000FC04F41414171017141488
:10506000F404F40000FF00F714141414141414F7DB
:1050700000F7141414171410101F101F141414F434
:10508000141010F010F000001F101F0000001F147B
:10509000000000FC140000F010F01010FF10FF14CE
:1050A0001414FF141010101F00000000F010FFFF78
:1050B000FFFFFFF0F0F0F0F0FFFFFF000000000046
:1050C000FFFF0F0F0F0F0F3844443844FC4A4A4A81
:1050D000347E02020606027E027E02635549416367
:1050E0003844443C04407E201E2006027E02029981
:1050F000A5E7A5991C2A492A1C4C7201724C304A1A
:105100004D4D303048784830BC625A463D3E4949A2
:1051100049007E0101017E2A2A2A2A2A44445F444A
:105120004440514A444040444A51400000FF01037A
:10513000E080FF000008086B6B0836123624360644
:105140000F090F0600001818000000101000304072
:10515000FF0101001F01011E00191D1712003C3C38
:105160003C3C0000000000005EBCE2613FDD83C209
:105170009C7E20A3FD1F41009D23BE46DB65F88C6D
:1051800011AF32CA57E97400002100240027002A19
:10519000002D003000330001010000040107010A66
:1051A00001000020002300260029002C002F0032DF
:1051B000000001000003010601090100000A0B02C2
:1051C000090C0D0E08070304010000000000000098
:1051D00000000000000000000000000000000000CF
:1051E000000000000000001211100000000000008C
:1051F00000000000000000000000000000000000AF
:1052000000010210202008081020401020408002D9
:1052100001020108040201010204081020408080FC
:105220004020100804020180040201804020100880
:105230000402010804020101020408102040800158
:105240000204081020408000002200250028002BC6
:10525000002E003100340002010000050108010B9E
:105260000105050505070508080808020202020AEB
:105270000A080804040404010101010101010103F9
:1052800003030303030303040707070C0C0C0C0CB4
:105290000C0C0C0202020206060606060606060BA7
:1052A0000B0B0B0B0B0B0B00CB68387F11241FBEB5
:1052B000CFEFD1E2DEBFCDBF00E00CBF29E0A6EB0F
:1052C000B7E001C01D92A43BB207E1F717E0A0E0F0
:1052D000B2E0E0EEFFE001E00BBF02C007900D92EC
:1052E000A63BB107D9F719E2C5E5D9E200E006C04F
:1052F00021970109802FFE010E941783C435D10731
:1053000080E00807A9F70E944D6A0C94DE870C9490
:10531000000008958150823108F05AC0E82FF0E073
:105320008827EA56F64D8F4F0C941783B629BA2971
:10533000A829AE29B229E829BD29C329C729CD2921
:10534000D129D529DB29DF29E829E329E929ED2914
:10535000809180008F7780938000089580918000F5
:105360008F7DF9CF80918000877FF5CF84B58F77CF
:1053700084BD089584B58F7DFBCF8091B0008F7779
:105380008093B00008958091B0008F7DF9CF809117
:1053900090008F77809390000895809190008F7D8A
:1053A000F9CF80919000877FF5CF8091A0008F7713
:1053B0008093A00008958091A0008F7DF9CF809107
:1053C000A000877FF5CF809120018F778093200107
:1053D0000895809120018F7DF9CF80912001877FF2
:1053E000F5CFCF93DF93282F30E0F901E554FE4A43
:1053F0008491F901EF5FFD4AD491F901EF59FD4A1B
:10540000C491CC23A1F081110E948A29EC2FF0E0F5
:10541000EE0FFF1FEF55FE4AA591B491EC91ED23DD
:1054200081E090E009F480E0DF91CF91089580E081
:1054300090E0FACF1F93CF93DF93282F30E0F9014C
:10544000E554FE4A8491F901EF5FFD4AD491F901D8
:10545000EF59FD4AC491CC23A9F0162F81110E9467
:105460008A29EC2FF0E0EE0FFF1FE95BFD4AA591C2
:10547000B4918FB7F894EC91111108C0D095DE2348
:10548000DC938FBFDF91CF911F910895DE2BF8CF72
:10549000CF93DF9390E0FC01EF5FFD4A24918F5999
:1054A0009D4AFC0184918823C9F090E0880F991FE0
:1054B000FC01E957FE4AA591B491FC01E95BFD4A64
:1054C000C591D49161110DC09FB7F8948C9120952E
:1054D00082238C938881282328839FBFDF91CF91DB
:1054E0000895623051F49FB7F8943C91822F8095D3
:1054F00083238C93E8812E2BEFCF8FB7F894EC9118
:105500002E2B2C938FBFEACFCF93DF93EC0162E079
:105510008D810E94482A2FB7F8948091520890916B
:105520005308A0915408B09155082FBF805D974053
:10553000A109B10989879A87AB87BC8787E38A8BE2
:10554000DF91CF910895863308F0865320917B0038
:10555000982F9870277F922B90937B0087708064A0
:1055600080937C0080917A00806480937A0080919F
:105570007A0086FDFCCF80917800909179000895A3
:105580002F923F924F925F926F927F929F92AF9233
:10559000BF92CF92DF92EF92FF920F931F93CF9320
:1055A000DF9300D000D0CDB7DEB760E08091F50882
:1055B0000E94482A60E08091F6080E94482A61E033
:1055C0008091F8080E94482A61E08091F7080E94C3
:1055D000482A80910309E091FB08F091FC08908132
:1055E000892B808380910409E091FF08F0910009E4
:1055F00090818095892380838091F5080E94A32A59
:105600008C018091F5080E94A32A9801281B390B70
:105610002C5F3F4F912C2930310530F4800F911FC2
:1056200095958795992493940FEF13E0081B190B18
:1056300060E08091F8080E94482A60E08091F708B5
:105640000E94482A61E08091F5080E94482A61E0A2
:105650008091F6080E94482A80910609E09101098C
:10566000F0910209908180958923808380910509BA
:10567000E091FD08F091FE089081892B8083809154
:10568000F7080E94A32A7C018091F7080E94A32AB0
:105690009701281B390B2C5F3F4F2930310508F04B
:1056A0009DC08E0D9F1D95958795CC24CA9423E0AF
:1056B000D22E7601E81AF90A61E08091F8080E947A
:1056C000482A60E08091F5080E94482A80910309E9
:1056D000E091FB08F091FC089081809589238083FC
:1056E00080910609E0910109F09102099081892BCE
:1056F00080838091F7080E94A32A5C018091F508BD
:105700000E94A32ABC016090F9087090FA08611405
:10571000710409F465C0072E000C880B990B0E94D8
:10572000C2811B012C01B501BB0C880B990B0E9497
:10573000C2819B01AC01C201B1010E948C8320E0B7
:1057400030E040E85FE30E941F835B016C01B80119
:10575000012E000C880B990B0E94C281A6019501B5
:105760000E9421825B016C01B30190E080E00E9405
:10577000C081A60195010E94218220E030E040E82E
:105780005AE30E9421820E94FE83911002C070E0C1
:1057900060E01A830983FC82EB827E836D83202F75
:1057A0003A814E2D5C817E8180E090E026960FB696
:1057B000F894DEBF0FBECDBFDF91CF911F910F9147
:1057C000FF90EF90DF90CF90BF90AF909F907F9031
:1057D0006F905F904F903F902F900895912C65CFE0
:1057E0006A197B09C601861B970BBC01CECF3FB758
:1057F000F89480914D0890914E08A0914F08B09177
:10580000500826B5A89B05C02F3F19F00196A11D91
:10581000B11D3FBFBA2FA92F982F8827BC01CD01FA
:10582000620F711D811D911D42E0660F771F881F59
:10583000991F4A95D1F708958F929F92AF92BF9288
:10584000CF92DF92EF92FF926B017C010E94F72BC7
:105850004B015C01C114D104E104F104B9F00E94D0
:10586000F72B681979098A099B09683E73408105FD
:10587000910580F321E0C21AD108E108F10888EE11
:10588000880E83E0981EA11CB11CE4CFFF90EF901E
:10589000DF90CF90BF90AF909F908F900895AF9280
:1058A000BF92CF92DF92EF92FF920F931F93CF930D
:1058B000DF936C017B018B01040F151FEB015E016F
:1058C000AE18BF08C017D10759F06991D601ED9104
:1058D000FC910190F081E02DC6011995892B79F793
:1058E000C501DF91CF911F910F91FF90EF90DF9055
:1058F000CF90BF90AF900895FC01448155816081A5
:1059000071818BE799E00C944F2CFC01538D448DF1
:10591000252F30E0842F90E0821B930B541710F05A
:10592000CF96089501970895FC01918D828D981767
:1059300061F0A28DAE0FBF2FB11D5D968C91928D3F
:105940009F5F9F73928F90E008958FEF9FEF089570
:10595000FC01918D828D981731F0828DE80FF11D39
:10596000858D90E008958FEF9FEF0895FC01918D54
:10597000228D892F90E0805C9F4F821B91098F734D
:105980009927089586E598E00E94B62C21E0892B9E
:1059900009F420E0822F0895FC01A48DA80FB92FEF
:1059A000B11DA35ABF4F2C91848D90E001968F7347
:1059B0009927848FA689B7892C93A089B1898C9166
:1059C000837080648C93938D848D981306C00288B5
:1059D000F389E02D80818F7D80830895EF92FF927F
:1059E0000F931F93CF93DF93EC0181E0888F9B8D02
:1059F0008C8D98131AC0E889F989808185FF15C0BC
:105A00009FB7F894EE89FF896083E889F9898081DE
:105A10008370806480839FBF81E090E0DF91CF91AD
:105A20001F910F91FF90EF900895F62E0B8D10E0CF
:105A30000F5F1F4F0F731127E02E8C8D8E110CC03E
:105A40000FB607FCFACFE889F989808185FFF5CF89
:105A5000CE010E94CC2CF1CFEB8DEC0FFD2FF11D70
:105A6000E35AFF4FF0829FB7F8940B8FEA89FB89C6
:105A700080818062CFCFCF93DF93EC01888D882324
:105A8000B9F0AA89BB89E889F9898C9185FD03C0A1
:105A9000808186FD0DC00FB607FCF7CF8C9185FF86
:105AA000F2CF808185FFEDCFCE010E94CC2CE9CFD3
:105AB000DF91CF91089580E090E0892B29F00E943A
:105AC000C22C81110E94000080E090E0892B49F0F7
:105AD00080E090E0892B29F00E94000081110E9453
